{
  "contractName": "SampleContract",
  "abi": [
    {
      "constant": true,
      "inputs": [
        {
          "name": "",
          "type": "uint256"
        }
      ],
      "name": "dogs",
      "outputs": [
        {
          "name": "id",
          "type": "uint256"
        },
        {
          "name": "name",
          "type": "string"
        },
        {
          "name": "age",
          "type": "uint256"
        },
        {
          "name": "owner",
          "type": "address"
        }
      ],
      "payable": false,
      "stateMutability": "view",
      "type": "function",
      "signature": "0x38272356"
    },
    {
      "constant": true,
      "inputs": [],
      "name": "dogCount",
      "outputs": [
        {
          "name": "",
          "type": "uint256"
        }
      ],
      "payable": false,
      "stateMutability": "view",
      "type": "function",
      "signature": "0xaac33aad"
    },
    {
      "anonymous": false,
      "inputs": [
        {
          "indexed": false,
          "name": "id",
          "type": "uint256"
        },
        {
          "indexed": false,
          "name": "name",
          "type": "string"
        },
        {
          "indexed": false,
          "name": "age",
          "type": "uint256"
        },
        {
          "indexed": false,
          "name": "owner",
          "type": "address"
        }
      ],
      "name": "dogAdded",
      "type": "event",
      "signature": "0xe6475fc2cd24c437c3523b654f0c9fd09a07cf0489fc3c95f22f7eda88046809"
    },
    {
      "constant": false,
      "inputs": [
        {
          "name": "_name",
          "type": "string"
        },
        {
          "name": "_age",
          "type": "uint256"
        }
      ],
      "name": "addDog",
      "outputs": [],
      "payable": false,
      "stateMutability": "nonpayable",
      "type": "function",
      "signature": "0x9967d1a2"
    },
    {
      "constant": true,
      "inputs": [
        {
          "name": "_id",
          "type": "uint256"
        }
      ],
      "name": "findDog",
      "outputs": [
        {
          "name": "",
          "type": "string"
        },
        {
          "name": "",
          "type": "uint256"
        }
      ],
      "payable": false,
      "stateMutability": "view",
      "type": "function",
      "signature": "0x73c4d255"
    }
  ],
  "bytecode": "0x608060405234801561001057600080fd5b5061085b806100206000396000f3fe608060405260043610610062576000357c0100000000000000000000000000000000000000000000000000000000900463ffffffff168063382723561461006757806373c4d2551461015c5780639967d1a214610217578063aac33aad146102e9575b600080fd5b34801561007357600080fd5b506100a06004803603602081101561008a57600080fd5b8101908080359060200190929190505050610314565b60405180858152602001806020018481526020018373ffffffffffffffffffffffffffffffffffffffff1673ffffffffffffffffffffffffffffffffffffffff168152602001828103825285818151815260200191508051906020019080838360005b8381101561011e578082015181840152602081019050610103565b50505050905090810190601f16801561014b5780820380516001836020036101000a031916815260200191505b509550505050505060405180910390f35b34801561016857600080fd5b506101956004803603602081101561017f57600080fd5b81019080803590602001909291905050506103fc565b6040518080602001838152602001828103825284818151815260200191508051906020019080838360005b838110156101db5780820151818401526020810190506101c0565b50505050905090810190601f1680156102085780820380516001836020036101000a031916815260200191505b50935050505060405180910390f35b34801561022357600080fd5b506102e76004803603604081101561023a57600080fd5b810190808035906020019064010000000081111561025757600080fd5b82018360208201111561026957600080fd5b8035906020019184600183028401116401000000008311171561028b57600080fd5b91908080601f016020809104026020016040519081016040528093929190818152602001838380828437600081840152601f19601f820116905080830192505050505050509192919290803590602001909291905050506104d2565b005b3480156102f557600080fd5b506102fe610784565b6040518082815260200191505060405180910390f35b6001602052806000526040600020600091509050806000015490806001018054600181600116156101000203166002900480601f0160208091040260200160405190810160405280929190818152602001828054600181600116156101000203166002900480156103c65780601f1061039b576101008083540402835291602001916103c6565b820191906000526020600020905b8154815290600101906020018083116103a957829003601f168201915b5050505050908060020154908060030160009054906101000a900473ffffffffffffffffffffffffffffffffffffffff16905084565b60606000600160008481526020019081526020016000206001016001600085815260200190815260200160002060020154818054600181600116156101000203166002900480601f0160208091040260200160405190810160405280929190818152602001828054600181600116156101000203166002900480156104c25780601f10610497576101008083540402835291602001916104c2565b820191906000526020600020905b8154815290600101906020018083116104a557829003601f168201915b5050505050915091509150915091565b6000825111151561054b576040517f08c379a00000000000000000000000000000000000000000000000000000000081526004018080602001828103825260148152602001807f7468657265206d7573742062652061206e616d6500000000000000000000000081525060200191505060405180910390fd5b600081101515156105c4576040517f08c379a00000000000000000000000000000000000000000000000000000000081526004018080602001828103825260148152602001807f7468657265206d75737420626520616e2061676500000000000000000000000081525060200191505060405180910390fd5b600080815480929190600101919050555060806040519081016040528060005481526020018381526020018281526020013373ffffffffffffffffffffffffffffffffffffffff16815250600160008054815260200190815260200160002060008201518160000155602082015181600101908051906020019061064992919061078a565b506040820151816002015560608201518160030160006101000a81548173ffffffffffffffffffffffffffffffffffffffff021916908373ffffffffffffffffffffffffffffffffffffffff1602179055509050507fe6475fc2cd24c437c3523b654f0c9fd09a07cf0489fc3c95f22f7eda8804680960005483833360405180858152602001806020018481526020018373ffffffffffffffffffffffffffffffffffffffff1673ffffffffffffffffffffffffffffffffffffffff168152602001828103825285818151815260200191508051906020019080838360005b83811015610743578082015181840152602081019050610728565b50505050905090810190601f1680156107705780820380516001836020036101000a031916815260200191505b509550505050505060405180910390a15050565b60005481565b828054600181600116156101000203166002900490600052602060002090601f016020900481019282601f106107cb57805160ff19168380011785556107f9565b828001600101855582156107f9579182015b828111156107f85782518255916020019190600101906107dd565b5b509050610806919061080a565b5090565b61082c91905b80821115610828576000816000905550600101610810565b5090565b9056fea165627a7a72305820c2082fb3f8526a4d99e5990c045b134db54d61a37b8b36c547664138e4a5e4780029",
  "source": "pragma solidity >=0.4.0 <0.6.0;\n\ncontract SampleContract {\n    struct Dog {\n        uint id;\n        string name;\n        uint age;\n        address owner;\n    }\n\n    uint public dogCount;\n\n    mapping(uint => Dog) public dogs;\n\n    event dogAdded(\n        uint id,\n        string name,\n        uint age,\n        address owner\n    );\n\n    function addDog(string memory _name, uint _age) public {\n        require(bytes(_name).length > 0, 'there must be a name');\n        require(_age >= 0, 'there must be an age');\n        dogCount++;\n        dogs[dogCount] = Dog(dogCount, _name, _age, msg.sender);\n        emit dogAdded(dogCount, _name, _age, msg.sender);\n    }\n\n    function findDog(uint _id) public view returns(string memory, uint) {\n        return (dogs[_id].name, dogs[_id].age);\n    }\n}",
  "sourcePath": "/Users/chadracelis/Coding/Solidity/React+Boostrap+Truffle Starter/app/src/contracts/SampleContract.sol",
  "compiler": {
    "name": "solc",
    "version": "0.5.0+commit.1d4f565a.Emscripten.clang"
  },
  "schemaVersion": "3.0.2",
  "updatedAt": "2019-08-16T21:58:35.951Z",
  "devdoc": {
    "methods": {}
  },
  "userdoc": {
    "methods": {}
  }
}